{
  "_format": "hh-sol-artifact-1",
  "contractName": "DocumentProof",
  "sourceName": "contracts/DocumentProof.sol",
  "abi": [
    {
      "anonymous": false,
      "inputs": [
        {
          "indexed": true,
          "internalType": "bytes32",
          "name": "fileHash",
          "type": "bytes32"
        },
        {
          "indexed": true,
          "internalType": "address",
          "name": "owner",
          "type": "address"
        },
        {
          "indexed": false,
          "internalType": "uint256",
          "name": "timestamp",
          "type": "uint256"
        }
      ],
      "name": "ProofStored",
      "type": "event"
    },
    {
      "inputs": [
        {
          "internalType": "bytes32",
          "name": "",
          "type": "bytes32"
        }
      ],
      "name": "proofs",
      "outputs": [
        {
          "internalType": "address",
          "name": "owner",
          "type": "address"
        },
        {
          "internalType": "uint256",
          "name": "timestamp",
          "type": "uint256"
        },
        {
          "internalType": "bool",
          "name": "exists",
          "type": "bool"
        }
      ],
      "stateMutability": "view",
      "type": "function"
    },
    {
      "inputs": [
        {
          "internalType": "bytes32",
          "name": "_fileHash",
          "type": "bytes32"
        }
      ],
      "name": "storeProof",
      "outputs": [],
      "stateMutability": "nonpayable",
      "type": "function"
    },
    {
      "inputs": [
        {
          "internalType": "bytes32",
          "name": "_fileHash",
          "type": "bytes32"
        }
      ],
      "name": "verifyProof",
      "outputs": [
        {
          "internalType": "address",
          "name": "owner",
          "type": "address"
        },
        {
          "internalType": "uint256",
          "name": "timestamp",
          "type": "uint256"
        },
        {
          "internalType": "bool",
          "name": "exists",
          "type": "bool"
        }
      ],
      "stateMutability": "view",
      "type": "function"
    }
  ],
  "bytecode": "0x608060405234801561001057600080fd5b50610551806100206000396000f3fe608060405234801561001057600080fd5b50600436106100415760003560e01c8063444d95b0146100465780638952877b14610078578063b142b4ec14610094575b600080fd5b610060600480360381019061005b9190610384565b6100c6565b60405161006f93929190610426565b60405180910390f35b610092600480360381019061008d9190610384565b61011d565b005b6100ae60048036038101906100a99190610384565b61028c565b6040516100bd93929190610426565b60405180910390f35b60006020528060005260406000206000915090508060000160009054906101000a900473ffffffffffffffffffffffffffffffffffffffff16908060010154908060020160009054906101000a900460ff16905083565b60008082815260200190815260200160002060020160009054906101000a900460ff1615610180576040517f08c379a0000000000000000000000000000000000000000000000000000000008152600401610177906104e0565b60405180910390fd5b60405180606001604052803373ffffffffffffffffffffffffffffffffffffffff1681526020014281526020016001151581525060008083815260200190815260200160002060008201518160000160006101000a81548173ffffffffffffffffffffffffffffffffffffffff021916908373ffffffffffffffffffffffffffffffffffffffff1602179055506020820151816001015560408201518160020160006101000a81548160ff0219169083151502179055509050503373ffffffffffffffffffffffffffffffffffffffff16817ffc53be67840f6c01250504a577d770310c017c021a359a28ffc19ff6aa39ec18426040516102819190610500565b60405180910390a350565b6000806000806000808681526020019081526020016000206040518060600160405290816000820160009054906101000a900473ffffffffffffffffffffffffffffffffffffffff1673ffffffffffffffffffffffffffffffffffffffff1673ffffffffffffffffffffffffffffffffffffffff168152602001600182015481526020016002820160009054906101000a900460ff1615151515815250509050806000015181602001518260400151935093509350509193909250565b600080fd5b6000819050919050565b6103618161034e565b811461036c57600080fd5b50565b60008135905061037e81610358565b92915050565b60006020828403121561039a57610399610349565b5b60006103a88482850161036f565b91505092915050565b600073ffffffffffffffffffffffffffffffffffffffff82169050919050565b60006103dc826103b1565b9050919050565b6103ec816103d1565b82525050565b6000819050919050565b610405816103f2565b82525050565b60008115159050919050565b6104208161040b565b82525050565b600060608201905061043b60008301866103e3565b61044860208301856103fc565b6104556040830184610417565b949350505050565b600082825260208201905092915050565b7f446f63756d656e74204150493a2050726f6f6620616c7265616479206578697360008201527f747320666f72207468697320686173682e000000000000000000000000000000602082015250565b60006104ca60318361045d565b91506104d58261046e565b604082019050919050565b600060208201905081810360008301526104f9816104bd565b9050919050565b600060208201905061051560008301846103fc565b9291505056fea26469706673582212208c83a70eb0be8e9bc01be7f7e06b161f39f3f5cda69c523ae0e91a0e6ca1cdb264736f6c63430008180033",
  "linkReferences": {},
  "deployedLinkReferences": {}
}